:100000000C9494020C94CC020C94CC020C94CC0270
:100010000C94CC020C94CC020C94CC020C94CC0228
:100020000C94CC020C94CC020C9404220C94C021AD
:100030000C9457230C94CC020C94CC020C94CC025C
:100040000C94CC020C94CC020C94CC020C94CC02F8
:100050000C94CC020C9433230C94CC020C94CC0260
:100060000C94CC020C94CC020C94CC020C94CC02D8
:100070000C94CC020C94CC020C94CC020C94CC02C8
:100080000C94CC020C94CC020C94CC020C94CC02B8
:100090000C94CC020C94CC020C94CC020C94CC02A8
:1000A0000C94CC020C94CC020C94CC020631FF09C7
:1000B00074A1010975150026FF00952075088102BD
:1000C0000976150026FF00952075089102C00501EC
:1000D0000902A10185020901A100050919012908E8
:1000E00015002501950875018102050109300931C6
:1000F0001581257F95027508810609381581257FB0
:10010000950175088106050C0A38021581257F9531
:100110000175088106C0C005010980A10185031988
:10012000012AB700150126B700950175108100C09E
:10013000050C0901A101850419012AA00215012657
:10014000A002950175108100C00660FF0961A10140
:100150000962150026FF00952075088102096315C4
:100160000026FF00952075089102C005010906A12F
:1001700001050719E029E71500250195087501819A
:10018000029501750881010507190029FF15002650
:10019000FF0095067508810005081901290515005D
:1001A0002501950575019102950175039101C04BDB
:1001B0004C3A206B633A2025752C20636F6C3A20F3
:1001C00025752C20726F773A2025752C207072656A
:1001D000737365643A2025750A000A002530386279
:1001E000003A200025303258000A722F6320303147
:1001F0003233343536370A00FD377A585A00000456
:10020000E6D6B4460200210116000000742FE5A3D3
:10021000E0018D00F45D003D8889C65436C3174F58
:10022000E4E468771740EC062B59748509E08354A1
:10023000F39EBE1EB6A132EB511CB423D629FA0898
:10024000D6794BF4C4496E00CCC3EC7DE625AE43B1
:100250006B7BD1488E69A3162439BA52575592B791
:10026000783D41A8E1F492CF8E3D63A875BD899990
:1002700078983786825957F86BC7659FDAB7E1CC13
:1002800039A922AE1A6F09BAC46BB7EAD2FFD0DE21
:10029000FA8C52584193A5275FD4ABC0CCBD79935B
:1002A000C0247B3F94487809AA92394D4267482779
:1002B0008E7CEA39F6351C58B9ACE2273BD6F305FB
:1002C0007FA872168BBACD29AA8278EA4B99B7C05B
:1002D000C2B14E917A36B408419C5077FEAF47E7E1
:1002E00074D08C31F03FA6D16C9FA9CD2E7BC7393D
:1002F0005B5143884A79E9146D3B139977EF7D147C
:10030000FA7063214000D1E872800000FC2A146179
:1003100099D4949A000190028E030000AFEE33ABA3
:10032000B1C467FB020000000004595A290A0025E5
:1003300075002F002575005D28002564002000252C
:100340006400200025640020002564007C00253026
:100350003258006D6F7573656B6579205B62746EE2
:100360007C782079207620685D287265702F616323
:100370006C293A205B00D100D300D200D400D50014
:100380005B435D005B445D005B535D005B575D005C
:100390005B525D0009027B00040100A032090400E9
:1003A000000103010100092111010001224400079D
:1003B000058103080001090401000203000000098F
:1003C00021110100012222000705820320000107FC
:1003D00005030320000109040200010300000009D5
:1003E0002111010001227B0007058403200001097F
:1003F0000403000203000000092111010001222270
:1004000000070585032000010705050320000112F0
:10041000010002000000084350AB1E01000102036E
:10042000011C037600690061006C003A006600362A
:100430000034006300320062003300630000001EDD
:100440000354007200610063006B00620061006C85
:10045000006C0020004D0069006E00690000001271
:100460000350006C006F006F007000790043006F54
:100470000000000403090400000000000000000068
:10048000000000000000000000000000000000006C
:1004900000000000000000000000007E0F00D4FFFC
:1004A000FFFFC70000007800000000000000002AE5
:1004B0002B280000000000000000000000000000E9
:1004C000000029000000002C1E34202122243426A4
:1004D00027252E362D3738271E1F2021222324259D
:1004E000263333362E37381F0405060708090A0B52
:1004F0000C0D0E0F101112131415161718191A1BC4
:100500001C1D2F3130232D350405060708090A0B61
:100510000C0D0E0F101112131415161718191A1BA3
:100520001C1D2F3130354C0011241FBECFEFDAE0F7
:10053000DEBFCDBF04B603FE18C08091E7039091E3
:10054000E803A091E903B091EA038730904BA740FC
:10055000B04B59F41092E7031092E8031092E903AC
:100560001092EA03E0E0F8E3099511E0A0E0B1E0C1
:10057000E4E6F7E502C005900D92A637B107D9F77A
:1005800023E0A6E7B1E001C01D92A73EB207E1F764
:100590000E947E230C94632B0C940000FF93EF9336
:1005A000E0917601F0917701309709F00995EF918C
:1005B000FF910895FC018591803011F0EFDFFBCFB2
:1005C0000895FF27E0E230E247FF0CC0419597FF16
:1005D00009C0EDE26095709580959095611D711D43
:1005E000811D911D27FF02C0219530E350E2AA270B
:1005F000660F771F881F991FAA1FA41710F0A41B4E
:1006000063955A95A9F7AA3008F0A95FA05DAF934A
:10061000F395611571058105910541F7ED3211F4EE
:10062000EF93F395F21718F43F93F395FBCF8F9167
:10063000B5DFFA95E1F70895E991F9918591803058
:1006400021F0853219F0AADFF9CF089520E0E8946F
:1006500055915532C1F3503311F4689455915A3382
:1006600048F4505390F3220F022E220F220F200D38
:10067000250FF4CF0EF4219589919991533619F3F2
:10068000533729F1533559F1BC0188279927E8944C
:100690005C3621F48991999168945591543639F4D6
:1006A00046EF7EF077FF0DC08FEF9FEF0AC0553702
:1006B0004AE039F0583540E121F0523642E009F085
:1006C0000895FF93EF937DDFEF91FF91B7CFFF93F5
:1006D000EF93FC0181918030B9F360DFFBCFFF9392
:1006E000EF9368DFF1CFDF93CF93CDB7DEB72596D9
:1006F000A3DFCF91DF910895482F2091E6039091D9
:10070000AD0357E0291302C080E0089530E0529F06
:10071000F001539FF00D1124E255FC4F81816813C5
:1007200006C08081481303C085818111EECF2F5F01
:100730003F4F2770E7CFE8EDF0E080818E7F808328
:100740001092E2001092DA001092E100A0EEB0E008
:100750008C9181608C9380818F77808319BCA7ED09
:10076000B0E08C918E7F8C9380818F7E80831092FD
:10077000960308952091E4003091E50095E6A901E3
:100780002091EC00822F817020FF06C08091E8004C
:1007900080FF06C080E008952091E80022FD1AC085
:1007A0008091A303882389F0853089F08091EB0044
:1007B00085FD0FC02091E4003091E50042175307FA
:1007C000F9F29150E1F684E0089582E0089583E023
:1007D000089581E008958091A50387FF13C080915B
:1007E000E80082FF06C08091E8008B778093E800E4
:1007F00004C08091A3038111F2CF08958091A303D7
:100800008823D9F38091E80080FFF8CF8091E80039
:100810008E77ECCF982F9093E900242F762F50E01D
:10082000891731F07091EC002091ED005091F000AB
:1008300021FD07C09F5F973071F78093E90081E049
:1008400008953091EB003E7F3093EB003091ED0046
:100850003D7F3093ED003091EB0031603093EB0041
:100860007093EC002093ED005093F0002091EE0087
:1008700027FDE0CF80E00895B0E0A0E0E2E4F4E0FE
:100880000C94A92AC8EDD0E088818F7E8883E7ED9B
:10089000F0E080818160808384E082BF81E080938A
:1008A000960388818E7F888302EE10E0F801108223
:1008B0001092DA0081EEC82ED12CF60110828881C8
:1008C0008F77888388818068888388818F7D8883FB
:1008D00019BC1092A3031092A4031092A2031092C9
:1008E000A10390EEE92EF12CF70180818B7F8083AC
:1008F00088818160888342E060E080E00E940A0491
:10090000F60180818E7F8083F80180818160808301
:10091000808188608083F70180818E7F80838881D9
:1009200080618883CDB7DEB7E8E00C94C52AFC016E
:100930008091AB039091AC0386179707A0F06115E7
:10094000710529F49091E8009E779093E80090E07B
:100950006115710551F4911108C08091E80082FF82
:1009600034C080E00895BC01F2CF8091A3038823B6
:10097000C1F18530C1F18091E80083FD30C08091E4
:10098000E80082FDEACF8091E80080FFE1CF80910E
:10099000F3002091F200382F6115710519F028300D
:1009A000310558F091E02830310509F090E02091B0
:1009B000E8002E772093E800CBCF81918093F1005F
:1009C000615071092F5F3F4FE7CF8091A3038823C8
:1009D00041F0853041F08091E80083FFBECF81E097
:1009E000089582E0089583E0089580919803089522
:1009F0009C014FB7F89480918F0390919003A09140
:100A00009103B09192034FBF821B930B08952FB7B0
:100A1000F89460918F03709190038091910390916D
:100A200092032FBF08952FB7F89480918F03909170
:100A30009003A0919103B09192032FBF0895DC0120
:100A4000FB0111969C9111978181981322C01296F7
:100A50008C911297882319F0928189131AC01396EA
:100A60008C911397882319F09381891312C01596DE
:100A70008C911597882319F0958189130AC01496D3
:100A80009C91992321F081E02481291303C080E007
:100A900001C081E0817008959C01FC0132969FEFB6
:100AA00080E04191461751F09F3F19F4411101C078
:100AB000982F8F5F8630A9F79F3F09F40895290F7B
:100AC000311D97FD3A95F90162830895A3E0B0E0E6
:100AD000ECE6F5E00C94AF2A20918C0330918D0365
:100AE00028173907A1F090938D0380938C03E09130
:100AF0008A03F0918B03309751F024E029839B8384
:100B00008A830680F781E02DCE0101960995239610
:100B1000E2E00C94CB2AA3E0B0E0E1E9F5E00C942C
:100B2000AF2A209188033091890328173907A1F053
:100B30009093890380938803E0918A03F0918B035B
:100B4000309751F023E029839B838A830680F781C5
:100B5000E02DCE01019609952396E2E00C94CB2A74
:100B6000E0918A03F0918B03309739F022E0DC01A9
:100B70002C930480F581E02D09950895E0918A0376
:100B8000F0918B03309729F00190F081E02D0995C9
:100B9000089580E008954115510511F0FA01099575
:100BA0000895EFEFF2E090E080E067EB70E24EED49
:100BB00050E226E230E277836683518740873387AD
:100BC000228797878687019670968830910599F7D6
:100BD00008952C9A08952C9808950E94980B0895D2
:100BE0008091B40180FD16C081FD16C082FD16C043
:100BF0008091B3018823A1F0883280F428E0829F9D
:100C0000C001112468E270E00E947E2A862F672BC3
:100C100039F0089582E0089584E0089588E0089509
:100C200081E008958091B40180FD14C081FD14C05D
:100C300082FD16C08091B501882381F08E3180F449
:100C400020E5829FC00111246EE170E00E947E2A9F
:100C5000862F089584E1089588E2089588E0089534
:100C600080E50895282F35EB2303C001112497FF59
:100C700004C080589109892F089580589F4FFBCF59
:100C80009091A20192FF10C041E0282F24712430DE
:100C900009F040E031E0282F2871283009F030E0D9
:100CA000431711F02CE0822793FF10C041E0282F5A
:100CB0002471243109F040E031E0282F28712831D7
:100CC00009F030E0431711F02CE082273091A301A6
:100CD00030FF10C051E0282F2171213009F050E081
:100CE00041E0282F2871283009F040E0541711F016
:100CF00029E0822731FF10C041E0282F21712131E6
:100D000009F040E031E0282F2871283109F030E067
:100D1000431711F029E0822794FD877E08958238D9
:100D20009105B9F1B0F48133910509F47DC048F41F
:100D30008932910509F46DC08A32910509F47BC0AE
:100D400008958533910509F45FC08933910509F150
:100D50000895833E9105D9F138F4803E910529F13B
:100D6000823E910579F10895863E9105D9F1873E3D
:100D7000910509F43EC0843E910541F52091A301FF
:100D800021FF24C08091A20184FD19C087EE90E06C
:100D900008952091A201237009F05AC02091A30167
:100DA00023FF14C089E290E008952091A20120FD64
:100DB00038C03091A30130FF09C024FF43C090E048
:100DC00080E008952091A20122FDF7CF089520919F
:100DD000A20122FD3AC03091A30130FD39C024FFA9
:100DE000F5CFEDCF2091A20123FFF0CF24FDE7CF77
:100DF000CDCF2091A20123FD2EC03091A30131FF60
:100E0000EECF84EE90E008952091A20125FFDECF81
:100E1000C9CF2091A20125FD21C02091A30123FF6C
:100E2000D5CF89E390E0D2CF2091A20126FFCECF8B
:100E30008AE290E008952091A20126FFC7CF81E3C6
:100E400090E0089583EE90E0089582EE90E008959A
:100E500080EE90E0089586EE90E0089585E390E0BE
:100E600008951F93CF93DF930E948F06EC01C11565
:100E700080E5D807F0F5C11580E4D80708F09CC0DC
:100E8000C03ED10520F5CD3CD10508F082C0C83A5E
:100E9000D10578F4C53AD10508F073C0C130D10549
:100EA00019F1209709F1C430D105F0F4D0E0C0E089
:100EB0001BC0C33CD105D0F7C85AD0E0CC0FDD1F12
:100EC000CF5DDE4F0990D881C02DD4640DC0C1150F
:100ED00080E2D80708F0D1C0C11581E0D80708F03A
:100EE0005AC0C83ED10510F7CE01DF91CF911F91B6
:100EF0000895C03682E5D80718F5C03482E5D807D2
:100F000008F06BC0C03282E5D80708F05FC0C11599
:100F100082E5D80708F497C02C2F2695269580E205
:100F2000289F900111248C2F8370C1E0D0E002C073
:100F3000CC0FDD1F8A95E2F7C22BD32BDD68D4CF0F
:100F4000C03A82E5D80760F4C03882E5D80708F4D3
:100F500059C0CF71D0E0DC2FCC27C46FD06AC4CF8A
:100F6000C03C82E5D80708F462C0C03E82E5D807DD
:100F700008F09CCFDC2FCC27CC27DF71C06FD06A64
:100F8000B3CFC55AD0E0C25EDE4FC881D0E0D06496
:100F9000ABCFD065A9CF8D2F0E944006182FCE0170
:100FA00099270E948F06C12FD0E0DC2FCC27CC27B9
:100FB000DF71C82BD92B98CFCE0199270E948F06BD
:100FC000CC27DF70C82BD92BD06A8ECFCF71D0E061
:100FD000DC2FCC27C16FD06A87CF2C2F2695269582
:100FE000277080E2289F900111248C2F8370C1E02C
:100FF000D0E002C0CC0FDD1F8A95E2F7C22BD32BC5
:10100000DC6872CF2C2F26952695277080E2289FCA
:10101000900111248C2F8370C1E0D0E002C0CC0F6E
:10102000DD1F8A95E2F7C22BD32BDA685DCF8C2FB8
:101030008F710E944006C82FD0E0DC2FCC27CC2730
:10104000DF71D06251CF8C2F8F710E94400655E026
:10105000D695C7955A95E1F7CF70D0E0DC2FCC2715
:10106000282F30E084FF05C044E0220F331F4A954B
:10107000E1F7C22BD32BD06937CF8D2F8F710E9410
:101080004006182FCE0199270E948F06C12FD0E06D
:10109000DC2FCC27CC27DF71C82BD92BD2CF809166
:1010A0009901882331F010929901109298011092C1
:1010B0009701089590919901292F282361F0809537
:1010C000892380939901882339F00E941305909316
:1010D000980180939701089590E080E0F8CF809583
:1010E0009091840398239093840308958095909120
:1010F0008503982390938503089510928E01109292
:101100008D0110928C01089590918B01292F282335
:1011100021F08095892380938B0108958091E603C7
:101120009091AD03981301C008958F5F8770FACF37
:1011300091111DC08530C8F4E1E8F1E050E040E0D5
:10114000219130E0082E02C0369527950A94E2F7E7
:1011500021703327042E01C0220F0A94EAF7922B44
:101160004F5F5F4F4330510559F7892F089590E045
:10117000FCCF911122C0853000F591E001C0990F9C
:101180008A95EAF7292FE1E8F1E050E040E070E0CD
:101190003191DF011197CB01042E02C096958795FE
:1011A0000A94E2F7817081958327822383278C93A9
:1011B0004F5F5F4F4330510559F708958093A10168
:1011C00008959091A10121E030E0F90101C0EE0FF6
:1011D0008A95EAF7D90102C0AA0FBB1F6A95E2F708
:1011E000EA2B01C0220F4A95EAF7892F8E23E813D4
:1011F00005C0292B822F0E94DE08089520952923FF
:10120000F9CF21E030E001C0220F8A95EAF720955E
:101210008091A10182230E94DE08089590918E01A1
:101220008095892380938E01282F277069F4891770
:1012300059F09091A30192FF07C0869586958695F7
:101240000E9401090E947D08089521E030E001C05C
:10125000220F8A95EAF78091A101822B0E94DE0875
:1012600008959091A30192FF10C098E0899F90018A
:101270001124622B60938E010E9425090E941305A0
:1012800090938D0180938C0108950E942509089503
:101290008093A0010895829590E09C01220F331F56
:1012A000220F331F2C7C9595879595958795837391
:1012B000282B30E0C901880F991F8A7A3595279528
:1012C0002575822B08959C013A9521153F4150F5D3
:1012D000FC01EE27F170BC0166277270AC01442757
:1012E00054709C012227387094FF0EC080E1EF2BD0
:1012F00009F480E0672B09F08062452B09F08064D7
:10130000232B89F08068089581E0EF2B09F480E0B9
:10131000672B09F08260452B09F08460232B19F0BC
:101320008860089580E00895A2E0B0E0EAE9F9E07D
:101330000C949F2A2C01FB013A018081918148166F
:10134000590614F451824082D3018D919C911197DA
:101350008415950514F44D925C92D3010D90BC91C7
:10136000A02DBA83A98320803180CD0182199309F1
:101370008A309105E4F163E070E00E947E2A620DFC
:10138000731D461657060CF07BC0D8018C9188233C
:1013900009F472C0D4018D919C91DC01AA0FBB1F8E
:1013A000AC0DBD1D89819A818D939C93D4018D9143
:1013B0009C9111978E3191050CF057C001968D9339
:1013C0009C9340815181D3018D919C91841B950BFD
:1013D00097FD019695958795840F951F918380833E
:1013E000D3018D939C93D9011C92D8011C92A98D95
:1013F000BA8D8C91882309F466C0D6019601225CCF
:101400003F4F90E080E04D915D91840F951F2A172A
:101410003B07C9F76FE170E00E947E2A9B01AF890C
:10142000B88D8C91882309F468C0F701A701425C4C
:101430005F4F90E080E061917191860F971F4E178A
:101440005F07C9F76FE170E00E947E2AFB01C901C6
:101450008E1B9F0B63E070E00E947E2ACB018E0FF3
:101460009F1F2296E2E10C94BB2A1D921C9281E000
:10147000A98DBA8D8C93A5CF81E0D9018C93B7CF7C
:10148000641575050CF0B3CFD9018C918823C1F098
:10149000D5018D919C91DC01AA0FBB1FAE0DBF1D24
:1014A0002D923C92D5018D919C9111978E31910591
:1014B0000CF484CF1D921C9281E0AF89B88DDACFF5
:1014C00081E0D801DBCFD4016D917C91611571056C
:1014D00081F0D60130E020E090E080E02617370769
:1014E0000CF09ACF4D915D91840F951F2F5F3F4F68
:1014F000F5CFD3012D913C9192CFD5016D917C9187
:101500006115710581F0F70150E040E090E080E066
:10151000461757070CF098CFA191B1918A0F9B1FE6
:101520004F5F5F4FF5CF0190F081E02D90CF9FB7D7
:10153000F894109294039FBF9091A303943009F004
:1015400048C02091E9002F703091EC00932F9170EA
:1015500030FD90E8922B25E02093E9002091EB00EC
:1015600020FF34C02091EE0027FF30C0209193036C
:10157000222321F02091E80025FF28C01092930338
:1015800026E03091E80035FF14C08093F10080918F
:10159000E80085FD27C08091E80080FFFCCF8091A6
:1015A000E8008E778093E8009F709093E90080E0D8
:1015B00008953091A303343049F43091EB0035FDA8
:1015C00005C0215041F481E0809393039F70909374
:1015D000E9008FEF0895EFE9FFE03197F1F700C0E0
:1015E0000000CFCF8FB7F89421E0209394038FBFF2
:1015F000DBCF0F931F93CF93DF938B01EA01909181
:10160000A303943061F58093E9008FEF9091E80097
:10161000815095FD06C095ED9A95F1F70000811176
:10162000F5CF8091E80085FF1AC00E94BA038111AE
:1016300011C08091E80085FD06C08091E8008E779A
:101640008093E800F2CFF80181918F018093F1003F
:10165000219779F78091E8008E778093E800DF91F9
:10166000CF911F910F91089543E050E0BC0184E0B9
:101670000E94F90A089546E050E0BC0184E00E940F
:10168000F90A0895CF93DF93EC0148E050E0BC01E4
:1016900081E00E94F90A88E0FE01A9E9B3E0019027
:1016A0000D928A95E1F7DF91CF91089581E08093C3
:1016B000E00080E28093D8001092C9008FE19EE4A0
:1016C0000197F1F700C0000087E090EBDC01809308
:1016D000E7039093E803A093E903B093EA0388E15A
:1016E0009CE00FB6F894A895809360000FBE90938D
:1016F0006000FFCF3E9A27E030E090E02F98AC01E9
:10170000022E02C0559547950A94E2F740FF0EC09D
:10171000469A4AE04A95F1F700C02F9A21503109C4
:1017200068F785E18A95F1F7000008954698F1CFB2
:10173000CF93C1E08D37910550F0CDE0863D26E096
:10174000920728F46DE770E00E946A2AC62F0E9473
:10175000EB0589E90E947A0B8C2F80610E947A0B3D
:101760000E94E905CF9108953E98469898E080E060
:101770002F9825E02A95F1F7000026B126FB2227B5
:1017800020F9880F822B2F9A25E02A95F1F7000087
:10179000915071F70895CF93DF930E94EB0583E694
:1017A0000E947A0B0E94B40BD82F0E94B40BC82F52
:1017B0000E94E9058D2FD7FD80689C2FC7FD90689A
:1017C000DF91CF910895ACE0B0E0E9EEFBE00C943E
:1017D000AD2A4F8358878B879C87162F072F0E942F
:1017E000CB0B811104C0911102C0902F812F8987EA
:1017F0009A8786E0FE013796DE01119601900D92E0
:101800008A95E1F729813A814B815C816D817E81E6
:1018100080E090E02C96E4E00C94C92A279A3E9A46
:10182000249A0E94EB058AEB0E947A0B8AE50E94BB
:101830007A0B0E94E9052FE78FEA92E02150804061
:101840009040E1F700C000000E94CB0B0895CF93B9
:10185000DF93C9ECD0E060E0CE010E94272B2196F7
:10186000C11584E0D807B9F7DF91CF9108951F9390
:10187000CF93DF93122F8830B8F4611115C0453033
:1018800098F4C42FD0E0CC0FDD1F9AE0899FC00DE3
:10189000D11D1124632FCE0189960E94272B612F21
:1018A000CE018A960E94272BDF91CF911F91089538
:1018B000CF93C82F6FEF81116EED85E290E00E940B
:1018C000272B6FEFC11168E786E290E00E94272B7B
:1018D0006FEFC11160EB87E290E00E94272BCF9160
:1018E0000895CF92DF92FF920F931F93CF93DF93D0
:1018F000CDB7DEB72A970FB6F894DEBF0FBECDBFC7
:10190000C0907F03D090800381E090E090938003AB
:1019100080937F03F12C10E000E0402F21E030E0C5
:10192000F11008C0F801EE0FFF1FEA58FC4F859137
:1019300094919C0160E08F2D0E94370C0F5F1F4F28
:101940000530110551F7F39488E0F812E4CF1A82BC
:1019500019821C821B821E821D8218861F8288ECBF
:1019600090E09A87898709E710E04AE050E0B801E3
:10197000CE0101960E944B2B065F1F4F093C1105BB
:10198000A1F7D0928003C0927F032A960FB6F894F5
:10199000DEBF0FBECDBFDF91CF911F910F91FF90A2
:1019A000DF90CF90089580E00E94580C60E088E2BC
:1019B00090E00E94272B0E94710C0E94270C81E06E
:1019C0000E94580C08959B01883070F49AE0899F1A
:1019D000B001112467587F4F4AE050E0C9010E94CE
:1019E000F32A90E080E008958FEF9FEF0895AAE03A
:1019F000B0E0EDEFFCE00C94AF2A9C0137552F3F8F
:101A0000310509F068F4BE016F5F7F4F0E94E30C5F
:101A1000892B31F489859A852A96E2E00C94CB2AA9
:101A200088EC90E0F9CF0F931F93CF93DF9388302A
:101A300008F561111FC04530E8F4042F10E0000FD5
:101A4000111F2AE0829F000D111D1124C8018996E3
:101A50000E94032BC82FD0E0DC2FCC27C8018A9628
:101A60000E94032B9E01282BC901DF91CF911F916A
:101A70000F91089590E080E0F8CF462F2091B101BA
:101A80003091B201232B99F4703F39F4603F79F41F
:101A90008091EB029091EC020895711108C06530BD
:101AA00030F4883020F460E00E94130D089590E037
:101AB00080E00895CF92DF92FF920F931F93CF9310
:101AC000DF936C010091A1018091A001082BC7E078
:101AD000D0E010E0FC2EC8010C2E02C09595879531
:101AE0000A94E2F780FD0CC02197A0F7F12C8F2D0E
:101AF000DF91CF911F910F91FF90DF90CF900895CC
:101B0000B6018C2F0E943D0D0E943107019761F3B1
:101B1000EECFCF93DF93EC010E945A0DBE010E94DD
:101B20003D0D0E943107DF91CF910895FC01248182
:101B30002223C1F0808191810E94890D92959F702E
:101B4000963091F058F4925F9F70923058F4803F35
:101B500019F030F4883E30F481E008959A5FF4CFB4
:101B6000843FD1F380E00895883EB0F3813FD1F700
:101B7000F3CFA6E0B0E0EFEBFDE00C94AE2A26E058
:101B8000FC01DE01119601900D922A95E1F7FC010E
:101B9000258189819A81222399F0662389F00E9408
:101BA0005A0D182F682F89819A810E94B90869817E
:101BB0007A81812F0E943D0D2696E3E00C94CA2A7B
:101BC0000E949808182FF3CF85E290E00E94032B23
:101BD0008E3D89F486E290E00E94032B883759F409
:101BE00087E290E00E94032B91E0803B09F090E0B7
:101BF000892F8170089580E0FCCFCF936BEB71E06B
:101C000085EE92E00E941F05C82F882321F085EE03
:101C100092E00E94B0059091E60286E0E5EEF2E0E7
:101C2000DF01282F1D922A95E9F79093E602ABEB8E
:101C3000B1E001900D928A95E1F781E0C11103C0F6
:101C4000911101C080E08170CF9108958091B6011B
:101C500083FF7EC083E593E00E94DA028091DF0279
:101C60001F928F938EE493E09F938F930E94730350
:101C70008CE493E00E94DA028091E002282F082E83
:101C8000000C330B3F938F9389E493E09F938F93E2
:101C90000E94730387E493E00E94DA028091E102DC
:101CA000282F082E000C330B3F938F9384E493E08E
:101CB0009F938F930E94730382E493E00E94DA0261
:101CC0008091E202282F082E000C330B3F938F9354
:101CD0008FE393E09F938F930E9473038DE393E0D0
:101CE0000E94DA028091E302282F082E000C330BA9
:101CF0003F938F938AE393E09F938F930E947303A4
:101D000087E393E00E94DA028091B5011F928F93DE
:101D100084E393E09F938F930E94730382E393E0A5
:101D20000E94DA028091B4011F928F938FE293E0B8
:101D30009F938F930E9473038CE293E00E94DA02D8
:101D40008DB79EB74C960FB6F8949EBF0FBE8DBF51
:101D50000E9413059C019091E0028091E102982B72
:101D600021F03093BA012093B9019091E202809161
:101D7000E302982B21F03093B8012093B7018EED48
:101D800092E00E94B0050895662309F472C08D3C6C
:101D900041F40E94120681958093E1020E94260E72
:101DA00008958E3C19F40E941206F6CF8F3C31F450
:101DB0000E94120681958093E002F0CF803D19F4D5
:101DC0000E941206F8CF893D29F40E94F005809305
:101DD000E202E4CF8A3D21F40E94F0058195F7CF1D
:101DE0008B3D31F40E94F00581958093E302D6CFBC
:101DF0008C3D19F40E94F005F8CF9FE2980F9830BF
:101E000020F5282F215D330BA90121E030E001C02E
:101E1000220F4A95EAF79091DF02922B9093DF020E
:101E2000815D21E030E0A90102C0440F551F8A9571
:101E3000E2F7CA012091E602662309F493C0822BDF
:101E40008093E6020E94FD0D08958D3D31F480914E
:101E5000B40181608093B401A1CF8E3D21F48091C3
:101E6000B4018260F7CF8F3D19F58091B401846091
:101E7000F1CF9091E0028D3C59F42091E10227FFCF
:101E80000DC01092E10291110BC01092B50108C073
:101E90008E3CB1F42091E10212169CF39923B1F02B
:101EA0009091E2022091E302922B11F41092B3017F
:101EB000482F415D550B4830510508F4B1CF6ECF26
:101EC0008F3C39F497FFEACF1092E0029091E10243
:101ED000DACF803D19F41916BCF3E0CF2091E2026D
:101EE000893D29F41216D4F61092E202D7CF8A3D2A
:101EF00019F427FFD3CFF8CF2091E3028B3D29F4CB
:101F000027FFCCCF1092E302C9CF8C3D19F41216F3
:101F1000CCF3C4CF2FE2280F283088F4282F215D7E
:101F2000330BA90121E030E001C0220F4A95EAF706
:101F300020953091DF0223232093DF02AFCF209141
:101F4000B4012E7F8D3D59F02091B4012D7F8E3D3F
:101F500031F08F3D09F0A2CF2091B4012B7F209367
:101F6000B4019CCF809582236BCF9091A30192FB0B
:101F7000222720F9281779F080FB92F99093A3018A
:101F80006091A2017091A30184E090E00E94452B32
:101F900082E00E940E09089582E08093A40140919E
:101FA000A4015091A5016091A6017091A7018FE055
:101FB00090E00E94392B40E050E0BA0183E190E0CC
:101FC0000E94392B08958091850390918403892B79
:101FD0008093780180919901882319F10E9413055B
:101FE0002091970130919801821B930B883893417F
:101FF00010F00E944F088091780190919901892BEF
:102000008093780120E08AE791E0FC013191CF01D3
:1020100031112F5FF1E080389F07B9F721110E943D
:102020004F0848E050E06FE871E088E791E00E94D7
:10203000DF2A892BA9F088E0E8E7F1E0AFE8B1E01A
:1020400001900D928A95E1F7E0918A03F0918B035C
:10205000309731F00280F381E02D88E791E0099517
:102060000895CF93DF93EC014A855B856E857F856C
:102070000E94CB058B810E946F088C810E9476089C
:102080000E94E30F86E0FE0111928A95E9F7DF9145
:10209000CF910895CF93DF93EC018D8181FD17C01F
:1020A00082608D83809184039B81892B809384033C
:1020B000809185039C81892B809385030E94E30F87
:1020C000488559856E857F85CE010E94CB0510928B
:1020D0008703109286038D8180FD03C0CE010E948C
:1020E0003110DF91CF910895CF9310928503C6E010
:1020F000EAE7F1E0DF018C2F1D928A95E9F790E085
:1021000080E00E948B0590E080E00E9466051092BE
:1021100084030E94E30FEEEDF2E0DF011D92CA9509
:10212000E9F71092B5011092B3011092B4010E9428
:10213000260ECF910895AAE2B0E0E1EAF0E10C9416
:10214000AE2A85EA93E02091F100DC012D93CD01C8
:10215000B3E08D3A9B07B9F78091A603833009F469
:1021600072C0B8F4813009F449C0823009F4B3C0B8
:102170008091E80083FF9CC28091A5039091A60303
:102180009A3008F095C2E92FF0E0EB59F44D0C9429
:10219000922A8A3009F48EC08B3009F471C08930DC
:1021A00039F78091A503813219F78091A9039091A5
:1021B000AA03009711F00297D9F68091E800877F73
:1021C0008093E8008091E80082FF38C09091F3008E
:1021D0008091F200029731F48091F100813011F08A
:1021E000863021F48091F100809398038091E8007B
:1021F0008B778093E8000E94EB03BACF8091A50310
:10220000813A09F0B5CF8091E800877F8093E8009C
:102210008091A9039091AA03892B61F468E089E970
:1022200093E070E00E9497048091E8008B778093A0
:10223000E8009ECF60E090E080E0F3CF8091A303C0
:102240008111C0CF95CF8091A503813A09F090CF3D
:102250008091A9039091AA03892B09F089CF8091DD
:10226000E800877F8093E8008091E80080FFFCCF42
:10227000809108018093F1008091E8008E77B9CFBA
:102280008091A503813209F073CF8091A9039091C9
:10229000AA03892B09F06CCF8091E800877F809397
:1022A000E8000E94EB038091A703809308010E943D
:1022B00074105ECF8091A503813209F059CF8091CF
:1022C000E800877F8093E8000E94EB038091A803D9
:1022D000809397034DCF8091A503813A09F048CFB1
:1022E0008091E800877F8093E8008091E80080FF7C
:1022F000FCCF80919703BECF803899F0823809F0E7
:10230000D7C18091A9038F70873008F0D1C1809325
:10231000E9008091EB0085FB882780F91092E900A5
:1023200006C08091A1039091A203911182609091C7
:10233000E800977F9093E8008093F1001092F100FD
:102340008091E8008E77B0C1882309F49EC1823065
:1023500009F0AEC18091A7038111A1C18091A903A9
:102360008F702FEF280F263008F0A2C18093E9006C
:102370002091EB0020FF93C1933031F48091EB006A
:1023800080628093EB008BC19091EB009061909301
:10239000EB0021E030E001C0220F8A95EAF720939C
:1023A000EA001092EA008091EB008860EACF811188
:1023B0007FC11091A7031F778091E3008078812B64
:1023C0008093E3008091E800877F8093E8000E947B
:1023D000EB038091E80080FFFCCF8091E3008068F0
:1023E0008093E30082E0111183E08093A30360C136
:1023F0008058823008F05CC12091A7033091A80377
:102400002C3DE3E03E07A1F583E08A838AE28983DD
:102410004FB7F894DE01139620E03EE051E2E32F3F
:10242000F0E050935700E49120FF03C0E295EF7075
:102430003F5FEF708E2F90E0EA30C0F0C7968D932B
:102440009D932F5F243159F74FBF8091E800877F1C
:102450008093E8006AE270E0CE0101960E94970442
:102460008091E8008B778093E80022C1C096E7CF87
:102470008091A9039091AA03432F5527433051051A
:1024800009F44AC078F54130510509F485C08BE75D
:1024900090E0E4E9F3E04230510509F009C12091F0
:1024A000E800277F2093E8002091AB033091AC0334
:1024B0008217930708F49C0140E02115310509F0CB
:1024C00070C041116EC08091E80082FDC9CF80913B
:1024D000A303882329F2853019F28091E80083FF55
:1024E000F2CFBECF4132510509F447C04232510507
:1024F00009F0DEC08430910508F0DAC0FC01EE0F6F
:10250000FF1FEA59FE4F0190F081E02D8E599E4F3A
:10251000DC018C9190E01DC0332721303105E9F0BA
:102520002115310579F022303105F9F023303105DC
:1025300009F0BEC0E1E2F4E0E4918E2F90E0E1E228
:10254000F4E007C0E3E7F4E0E4918E2F90E0E3E7E6
:10255000F4E0009709F4ACC0A2CFEFE5F4E0E49119
:102560008E2F90E0EFE5F4E0F4CFEFE3F4E0E491B8
:102570008E2F90E0EFE3F4E0ECCF8430910508F08B
:1025800097C0880F991FFC01E259FE4F0190F0811E
:10259000E02D89E090E083CF82E190E0EFE0F4E08D
:1025A0007ECF8091A303882309F45ACF853009F4A4
:1025B00057CF8091E80083FD53CF8091E80082FDE2
:1025C00082CF8091E80080FF78CF9091F3008091D6
:1025D000F2002115310519F08830910550F041E0E5
:1025E000089709F040E08091E8008E778093E8003A
:1025F00064CF44914093F100319621503109019606
:10260000E8CF803809F054C08091E800877F80933C
:10261000E8008091A4038093F10092CE811148C01C
:102620001091A703123008F043C08091E800877F23
:102630008093E8001093A4030E94EB03112311F090
:1026400084E005C08091E30087FDFACF81E08093AC
:10265000A30342E061EC81E00E940A0442E261ECE3
:1026600084E00E940A0442E261EC82E00E940A04D3
:1026700042E260EC83E00E940A0442E261EC85E001
:102680000E940A048091A30313C08091A7038130A4
:1026900079F481E0933009F080E08093A2031092F6
:1026A000E9008091E800877F8093E8000E94EB03B7
:1026B0008091E80083FF0AC08091E800877F8093C3
:1026C000E8008091EB0080628093EB00AA96E3E043
:1026D0000C94CA2A0E9474102FEF84E39CE02150CE
:1026E00080409040E1F700C0000088E19CE00FB618
:1026F000F894A895809360000FBE90936000FFCF80
:10270000882321F00E946F080E94E30F0895882318
:1027100039F090918403982B909384030E94E30FE7
:102720000895882321F00E9476080E94E30F0895FF
:10273000882339F090918503982B909385030E940C
:10274000E30F08958823D1F19CEF980F913A78F424
:10275000EAE7F1E09191891303C0DF0111971C9220
:1027600091E0E038F907B1F70E94E30F089590E295
:10277000980F983050F4877091E001C0990F8A95B6
:10278000EAF7892F0E947608EFCF9BE5980F9330E8
:1027900028F490E080E00E948B05089598E5980F5A
:1027A0009B3128F490E080E00E946605089593E351
:1027B000980F933118F460E00E94C40E0895CF93EF
:1027C000C82F8823B1F08CEF8C0F813A00F5EAE72F
:1027D000F1E080E891E0DF012D91C21761F08A17E6
:1027E0009B07D1F76C2F88E791E00E944C050E946F
:1027F000E30FCF9108952191C21303C0DF01119718
:102800001C928E179F07B9F70E94E30FEBCF80E26F
:102810008C0F883068F4C77021E030E001C0220FCF
:10282000CA95EAF780918503822B80938503DFCFD9
:10283000EBE5EC0FE33040F4F0E0E25EFE4F808128
:1028400090E00E948B05D5CFE8E5EC0FEB3150F41A
:10285000F0E0EE0FFF1FEF5DFE4F808191810E943F
:102860006605C7CF83E38C0F833118F661E08C2FA8
:102870000E94C40EBECF1F93CF93DF93182FD0E0DA
:10288000C0E0893311F4C0E5D0E0812F0E94DF134E
:10289000209739F4812F0E94A213DF91CF911F91CD
:1028A00008958FE99FE00197F1F700C0000021979C
:1028B000EFCFB0E0A0E0EFE5F4E10C94A72AEC0143
:1028C0008AE0A82E2881222309F48FC02130C9F57F
:1028D00099818A81913021F422960E943B1405C08F
:1028E000923029F422960E94DF132196EBCF933089
:1028F00021F422960E94A213F8CF943011F0219671
:10290000F4CF229630E020E0AE014F5F5F4F80535E
:10291000990B8A30910550F02150310930F38FE93D
:102920009FE00197F1F700C00000F6CFA29EB00132
:10293000A39E700D11249C01260F371F8981EA0187
:10294000E3CFE22FF0E0E955FB4FB490822F86955C
:102950008695869590E0FC01E956FB4FE490277040
:10296000F12C022E02C0F594E7940A94E2F731E0CC
:10297000E322FF24FC01E957FB4FC490D12C022E27
:1029800002C0D594C7940A94E2F731E0C322DD2453
:10299000FC01E958FB4F049110E002C01595079522
:1029A0002A95E2F701701127E114F10419F081EE84
:1029B0000E94DF13C114D10419F086EE0E94DF13C8
:1029C0008B2D0E943B14C114D10419F086EE0E9495
:1029D000A213E114F10419F081EE0E94A213011573
:1029E000110509F482CF8CE278CFCDB7DEB7EAE0EB
:1029F0000C94C32AB0E0A0E0E0E0F5E10C94A92A31
:102A00006B01C42FD22FFC0185818823A9F040934C
:102A100083030E9413059093820380938103C77000
:102A200081E001C0880FCA95EAF70E949813CDB7DC
:102A3000DEB7E8E00C94C52A10918303141337C065
:102A400080918103909182030E94F8047C01C60169
:102A50000E94F70CE816F90650F5C0E2CD0F1D17DD
:102A6000C1F080E2810F883048F4177081E0012EB8
:102A700001C0880F0A94EAF70E949113C83048F405
:102A800081E09D2F977001C0880F9A95EAF70E9408
:102A90009813802F0E943B14C83048F6D77081E00D
:102AA00001C0880FDA95EAF70E949113C0CFC77072
:102AB00081E001C0880FCA95EAF7F6CFA0E2B0E046
:102AC000E4E6F5E10C949F2A4091E5025091E6027C
:102AD0006091E7027091E8028091E9029091EA0228
:102AE0000E94E30B2093E5023093E6024093E70255
:102AF0005093E8026093E9027093EA0286E0E5EE03
:102B0000F2E0DE01179601900D928A95E1F7209090
:102B1000E7023090E802319439862A8686E0FE0189
:102B20003796DE011D9601900D928A95E1F786E0B9
:102B3000FE013D96DE01119601900D928A95E1F716
:102B400086E0FE013196A5EEB2E001900D928A95E5
:102B5000E1F786E0E5EEF2E0DE01599601900D9294
:102B60008A95E1F78091E90288A38091EA028F8F2C
:102B700080E00E943C2A2C0184E00E943C2A3C0117
:102B80008091D702882321F08091D60281112BC039
:102B900086ED92E09F938F9387ED92E09F938F93C2
:102BA00041EC842E41E0942E53ECA52E51E0B52E3D
:102BB00065ECC62E61E0D62E73E0E72E72E0F72EAC
:102BC00001E412E022E432E043E452E065E472E022
:102BD000C2010E9494099093D3028093D2020F9075
:102BE0000F900F900F908091D502882321F0809153
:102BF000D40281112BC084ED92E09F938F9385EDD9
:102C000092E09F938F9387E4882E82E0982E99E438
:102C1000A92E92E0B92E2BE4C22E22E0D22E39E862
:102C2000E32E32E0F32E07EC12E028EC32E049EC20
:102C300052E06BEC72E0C3010E9494099093D102C0
:102C40008093D0020F900F900F900F904091D2027E
:102C50005091D3028091D0029091D1022091CF0265
:102C600021119DC04416550608F089C068167906E2
:102C700010F410E00AC083E08093CF028091CE026E
:102C80008823B9F31092CE0211E08091DB0290917B
:102C9000DC020E94F80484369105D0F08091D902BC
:102CA0009091DA020E94F804059790F08091D80282
:102CB00081110EC0112361F08AED113009F489ED04
:102CC0000E943B140E9413059093DA028093D9026C
:102CD0008091DD02882321F03F8E28A2212C312C07
:102CE0003B8E2C8E88A18D8F8F8D8E8F86E0FE017E
:102CF0007996DE01179601900D928A95E1F786E0AC
:102D0000FE013796DE01119601900D928A95E1F74A
:102D100086E0FE013196DE01539601900D928A9570
:102D2000E1F786E0FE017396DE01179601900D92A1
:102D30008A95E1F786E0FE013796A5EEB2E00190B4
:102D40000D928A95E1F786E0EEEDF2E0DE0117964E
:102D500001900D928A95E1F78091E6029885892B82
:102D60008093E6020E94FD0D81116BC08091E40208
:102D70001092E4028170A096E2E10C94BB2A6816DE
:102D8000790608F076CF81E08093CF028091CD0262
:102D9000882309F46ECF1092CD021FEF76CF213039
:102DA000B1F44416550658F06816790608F461CF58
:102DB0001092CF022093CE021092CD025ACF681605
:102DC000790608F056CF82E08093CF02F3CF22300D
:102DD00009F54416550678F06816790608F049CFCB
:102DE00081E08093CF028091CD02882309F441CF06
:102DF0001092CD0249CF6816790608F43ACF83E0E5
:102E00008093CF028091CE02882309F432CF1092B2
:102E1000CE02C3CF4416550660F06816790608F452
:102E200028CF1092CF0281E08093CD021092CE0283
:102E300020CF6816790608F01CCF82E08093CF027D
:102E4000F2CF81E090E094CFA4E0B0E0EAE2F7E1D5
:102E50000C94A52A7C01DC0114968C91882309F43A
:102E60002EC261E0C7010E94B90D8C01F701858176
:102E7000882319F180918603909187030097E9F0E8
:102E800008171907D1F09927E4E0880F991FEA95F0
:102E9000E1F7FC01EC5FFC4F20812460208381502E
:102EA0009D4FDC010D931C930E944A1010928403E5
:102EB00061E0C7010E94B90D8C01F701858188236B
:102EC00009F4B1C0C80197578038910508F0E0C0F7
:102ED000D02EFFE0F01708F4E2C18FEF93E00E94DC
:102EE000032B8111DCC109EC10E0D11036C019822E
:102EF0001A821B821C8299249A9468013FEFC31A9C
:102F0000D30AC8010E94032B89831A82882309F4FB
:102F1000C6C1813009F081C0580142E0A40EB11C45
:102F2000C6010E94032BC82E8A83882309F4B7C1E7
:102F3000C5010E94032BD82E8FEF8C0D8330D8F45F
:102F4000580153E0A50EB11CDB82DD2021F0CE013B
:102F500001960E9459148501D0CF011524E0120773
:102F600009F49DC1C8010E94032B811101C0DA94AC
:102F70000F5F1F4FBACF8BEF8C0D833030F5C80138
:102F80000396DB825C01DD2031F35801A4E0AA0E38
:102F9000B11C0E94032B8C838823E9F28B819C81D6
:102FA0008130BFEF9B0710F0982F8827E6E0CE1600
:102FB00031F0F7E0CF1631F00E94AC20CCCF0E9468
:102FC0007420C9CF0E94EE1FC6CF24E0C212C3CF27
:102FD000580134E0A30EB11CC80103960E94032BD4
:102FE000DD2009F45CC1882309F459C18150990B93
:102FF000989E9001999E300D11244D2D4150550BF6
:10300000CA01820F931F019708F4A5CFAFE9BFE073
:103010001197F1F700C00000F6CFCE0101960E9493
:103020005914560198CF6801E7E5DE1AFFEFCF1675
:10303000D10409F068F565EF72E08C2D0E94E30C75
:10304000892B31F5C60164E0880F991F6A95E1F775
:10305000FC01E150FD4F2281213009F090C0209108
:10306000F5023091F602232B99F02091F70230916E
:10307000F802232B69F02091F9023091FA02409175
:10308000FB025091FC02242B352B232B09F481C029
:10309000D70115968C9115971F928F9311968C914D
:1030A00011971F928F938C911F928F931F930F9361
:1030B0008FEA91E09F938F930E9473030FB6F89469
:1030C000DEBF0FBECDBFD7018C91813071F4119658
:1030D0008C9181110AC00E9413059093DC028093A9
:1030E000DB02F70185818093D8020115FEE71F07F7
:1030F00009F05AC0D70115968C91882309F1809167
:10310000A40190E0019663E070E00E946A2A809337
:10311000A4014091A4015091A5016091A601709174
:10312000A7018FE090E00E94392BE091A401F0E02C
:10313000EE0FFF1FE45AFE4F808191810E94ED0542
:10314000F7018581882309F40DC410928303C80117
:103150009057839708F0F0C384E090E00E94112B11
:103160009093A3018093A201F801E150F047E2326D
:10317000F10508F0CCC0E159F44D0C94922A2230AC
:1031800009F086CF2091F9023091FA02232B09F43D
:103190007FCFFC01EC5FFC4F20812E7F208381508C
:1031A0009D4F0E944A1074CF0130BEE71B0761F4A7
:1031B0008091DD0291E089278093DD02882309F464
:1031C000B4CF87E791E0BACFC8019755F8018F3F98
:1031D000910511F008F0A6C3FF2744E0EE0FFF1F92
:1031E0004A95E1F79F0121503D4F6901D70115969E
:1031F0008C91EC5FFC4F908180FB90F99083882349
:1032000049F10E9413059093AA018093A901F60148
:1032100082818F5F82838091840390918503892BC3
:103220008383809199018483468157816685778560
:10323000C6010E94CB05D60115968C9181FF07C06F
:1032400090E080E0909386038093870379CF902F5E
:10325000812FF8CFF9014485558566857785C901A9
:103260000E94CB05D60115968C9181FF69CFC601CE
:103270000E943110809186039091870308171907E7
:1032800009F05ECF109287031092860359CF06E2B1
:1032900021EE41EE6AE17CE7C7010E94FA148091B9
:1032A0008E01877061F0D70115968C91882339F0D3
:1032B0008091A30182FF03C082E00E940E09249640
:1032C000ECE00C94C12A07E225EE45EE6BE17CE7C9
:1032D000E3CF06E221EE40EE68E17CE7DDCF07E2D6
:1032E00025EE44EE69E17CE7D7CF06E221EE42EE1F
:1032F0006CE17CE7D1CF07E225EE46EE6DE17CE79D
:10330000CBCF08E221E045EE6EE17CE7C5CF8091AE
:10331000A20181608093A20195C08091A301886081
:103320008093A3018FC08091A2018260F3CF80912E
:10333000A2018460EFCF8091A2018860EBCF8091E1
:10334000A3018160EDCF8091A3018260E9CF8091DC
:10335000A2018061DFCF8091A2018062DBCF8091EA
:10336000A2018064D7CF0E9474108091A20180686E
:10337000D1CF8091A2018C60CDCF8091A3018360D9
:10338000CFCF8091A2018E7FC5CF8091A301877F8F
:10339000C7CF8091A2018D7FBDCF8091A2018B7F8D
:1033A000B9CF8091A201877FB5CF8091A3018E7F95
:1033B000B7CF8091A3018D7FB3CF8091A2018F7E83
:1033C000A9CF8091A2018F7DA5CF8091A2018F7B93
:1033D000A1CF0E9474108091A2018F779BCF809122
:1033E000A201837F97CF8091A3018C7F99CF809199
:1033F000A20182FB992790F921E0922790FB82F9A4
:1034000090FB83F987CF8091A301982F90959170BD
:103410008E7F892B90FB81F983CF9091A201892F18
:103420008F7B96FF806476CF0E9474109091A201EA
:10343000892F97FB87F980586DCF61E08EE090E08F
:103440000E94272B6091A2017091A30184E090E07B
:103450000E94452B0E94741022CF60E0EFCF909124
:10346000A201892F8F7E94FF806154CF9091A20199
:10347000892F8E7F90FF81604DCF9091A301892F7E
:10348000877F93FF88604CCF85E376C281E00E94FE
:10349000250943E062E081E00E94E10800CF81E07D
:1034A0000E940109F6CF82E0F2CF0B355CE71507E9
:1034B00049F10C358CE71807D9F00A351C4709F09B
:1034C00083C281E01CC00E947410AFEFB4E3ECE053
:1034D000A150B040E040E1F700C000000E94560B50
:1034E0006FEF7FEF90E080E00E94452B0E946A130F
:1034F0008091A30182FB882780F991E089270E94AF
:10350000B50F62C280E0FBCFC8010E949808D82E98
:103510006AC2E12FEF70DE2E107F19F0D29490EF87
:10352000D922CC20B9F0DD2069F080E2800F88300C
:1035300010F0811009C080918503D82AD0928503AC
:103540000E94E30F802F3FC080918403D82AD0923D
:103550008403F6CF802F0E94A213DD20B1F1005E1C
:103560008D2D083010F0811003C00E94760802C033
:103570000E946F080E94E30F28C0F12FFF70DF2E1A
:10358000107F103219F0D29480EFD822882059F0A1
:1035900021E0821609F487C0CC2009F493C0BB2037
:1035A00009F441C0CFCF8091A30182FD38C0CC2067
:1035B00079F1DD2039F080918503D82AD0928503F6
:1035C0000E94E30F80E00E94DF13A92DA850BB0BDF
:1035D000149710F40E94BE05AA20A9F080918E01D4
:1035E00080FD11C0F70115828695869586950E940B
:1035F0002509C7010E94241780918E018695869522
:1036000086950E94010960E0C7010E94B90D57CE5E
:1036100080E00E94A213DD20C1F28D2DA6CFCC2028
:1036200069F1B11004C08D2D0E949813CECF31E006
:10363000B31210C0109199018D2D8123D81629F253
:103640000E9413059093980180939701D12AD092FC
:103650009901BBCF45E0B412B8CF8D2D0E949813CD
:103660008D2D0E945A0880918B019D2D9823D9168B
:1036700009F4ABCFD82AD0928B01A7CFB1100AC0E2
:103680008D2D0E9491138D2D0E945A088D2D0E9420
:1036900084089BCF51E0B51298CF809185038D218E
:1036A00009F493CFEDCFCC2029F085E08B1508F4F9
:1036B0008CCFB9CF94E09B1508F487CF8D2D0E9455
:1036C000911383CFBB20D1F3A9E38A1209C0BFEFC6
:1036D000E7EEF3E0B150E040F040E1F700C0000059
:1036E000802F0E94A21371CF812F869586958370BB
:1036F00061F0813009F069CFC8019370C11002C038
:1037000080E090E00E94660560CFC8019370C11010
:1037100002C080E090E00E948B0557CF6C2D802F77
:103720000E94C40E52CF812F837089F5C1104DCFF6
:10373000402F429546954770440F440F802F8F705D
:10374000042E01C0880F0A94EAF7202F207104FF8D
:1037500007C02FE030E001C0220F4A95EAF720951C
:10376000169516951370123069F050F43091A0013F
:10377000113029F0822B83230E94480926CF832B06
:10378000822BFACF282B8091A0018227F5CF869536
:10379000CC2011F0812F8170882309F416CF402F9F
:1037A000429546954770440F440F802F8F70042E2A
:1037B00001C0880F0A94EAF7202F207104FF07C088
:1037C0002FE030E001C0220F4A95EAF720951695C8
:1037D00016951370123069F050F43091A101113038
:1037E00029F0822B83230E94DE08EFCE832B822BCD
:1037F000FACF282B8091A1018227F5CF1F70CC2012
:1038000029F0812F0E942509802F0ECF802F0E9442
:103810009113812F0E940109D8CE802F22EF8216AA
:10382000B1F1281570F030EF8316D1F041EF841616
:1038300091F0CC2009F466C0B11084CE812F8F7135
:103840002AC053EF851651F194EF8912F2CF80917F
:10385000A30182FD2FC0812F8F71CC20D9F21BC014
:10386000CC2081F0A4E0AB1508F4AFCE1F7181E04D
:1038700090E0012E01C0880F0A94EAF79091A1010F
:103880008927B1CFB5E0BB1508F49FCEEFCF812FCC
:103890008F71C110BFCF0E94250997CE80E0CC2048
:1038A00009F4A1CF1F7181E0012E01C0880F0A9495
:1038B000EAF799CFCC20C9F080918E0187708430CF
:1038C00041F40E947D08812F8F710E940109A12C73
:1038D0007CCEE4E0EB15D8F31F71812F0E942509FF
:1038E00063E0812F0E943109F2CFF4E0FB1530F440
:1038F0000E947D0864E0812F8F71F4CF81E00E94E7
:103900000E09E5CFBB2059F0893309F0E9CE2FEF3E
:1039100037EE43E0215030404040E1F7DFCE812FC9
:103920008F7178CFE851FC47E730F10508F008CCFB
:10393000EF56F44D0C94922A0631FCE71F0751F51F
:10394000809185038A7A91E009F490E09093800158
:1039500069E2811165E388E791E00E944C050E94CD
:10396000E30F9DCC06312CE7120709F07EC0809151
:103970008001811189CD89E2EAE7F1E020E831E0B8
:103980009191891303C0DF0111971C922E173F07F5
:10399000B9F7E5CF07373CE7130709F477CD0837C8
:1039A0004CE7140709F47FCD0330FCE71F0709F447
:1039B00097CD08F07ACD01153CE7130709F483CDC4
:1039C00001301C4709F492CDF701858100811181F6
:1039D000882309F499CDC8010E945A0DD82E682F6A
:1039E000C8010E94B908B8018D2D0E943D0D0E94AA
:1039F00031078C01882ED7011596CC901597169615
:103A0000BC90B2943FE0B32280918E018770F1F0B8
:103A1000AC2CCC20E1F0812F807F803451F080E20B
:103A2000800F883098F0B11004C0812F807E8032E2
:103A300069F08091A30182FF09C082E00E940E0913
:103A400080918E018770AA24A3948111A12C912EBC
:103A500092942FE09222BBE0B91508F4B6CDE92D7F
:103A6000F0E0E856F44D0C94922A07375CE715070E
:103A700009F415CD08378CE7180709F0A5CF82E0C7
:103A80000FCDB0E0A0E0E7E4FDE10C94AA2A80911C
:103A90008A01807F09F051C080918901882309F44F
:103AA0004CC0E091E60387E0D82E8091AD038E17DD
:103AB00009F443C00E2F10E0ED9DF0011124E255F2
:103AC000FC4F84818823F1F1D09EE001D19ED00D7E
:103AD0001124FE01E255FC4F9181809185019813DC
:103AE00031C090818091840198132CC0858181110F
:103AF00029C0E280F3808091860190918701E81AC5
:103B0000F90A60E084E891E00E94B90D0E94F70C88
:103B1000E816F906B8F480918A018F70806180936D
:103B20008A01CC54DC4F88818F708061888384E85F
:103B300091E00E9424170E948E08CDB7DEB7E7E01F
:103B40000C94C62AF8013196E770AFCFA4E1B0E03B
:103B5000ECEAFDE10C94A22A8C0186E0F801DE017A
:103B60001F9601900D928A95E1F7F801F480E580A7
:103B700084E8882E81E0982E8091880181112AC0E6
:103B8000F11003C0FF24F3941CC0EE20F9F0C8012B
:103B90000E94960DF82E8823C9F087E0F801A4E86A
:103BA000B1E001900D928A95E1F780918801813012
:103BB00031F480918401909185010E94890D0E94C9
:103BC000411D8F2D6496EFE00C94BE2AC8010E941F
:103BD0002417D8CFC280D380B0908901809186010C
:103BE000909187013601681A790ABB2009F4F9C05F
:103BF0005080A18060E084E891E00E94B90D0E94AD
:103C0000F70C6816790608F0A5C0FF2009F4BACFB2
:103C100080918A01382F307F20918501F8019181B0
:103C2000311158C0FE2C291314C0209184019081B9
:103C300029130FC0E11047C08F70806180938A0103
:103C400084E891E00E94241780918A01F80186831C
:103C5000B8CFE11038C06A2D852D0E947C036A2DF3
:103C6000852D0E947C03E82E8111ABCF5F86A88A48
:103C70008F8598890E94890D292F22952F702430D5
:103C800058F49F70223088F0992399F0F8019681BA
:103C9000907F79F4FE2C95CF2A5F2F70223068F048
:103CA000C8010E942417EB2CF5CF992311F088232B
:103CB00089F3805E883070F3F3CF803F58F3815FE3
:103CC000833070F7E7CF80918A01816080938A0109
:103CD000F12C77CF291315C02091840190812913ED
:103CE00010C0E1100EC08683C8010E94241787E02F
:103CF000F801A4E8B1E001900D928A95E1F7FB2C60
:103D000060CFC8010E94960D882309F45FCFEE2092
:103D100009F45CCF80918A01803288F0209184017F
:103D20003091850139872887DB86CA869091880182
:103D30009C871D868E87CE0108960E94241787E0F7
:103D4000F801A4E8B1E001900D928A95E1F70E9494
:103D5000411D18CF80918A01982F907F51F484E8FB
:103D600091E00E94241787E0F40111928A95E9F707
:103D7000AFCFFF2009F406CF20918501F801918192
:103D8000291311C020918401908129130CC0E110E6
:103D90000AC08683C8010E94241787E0F4011192AB
:103DA0008A95E9F7ACCFC8010E94960D882309F4E3
:103DB0000DCFEE2009F40ACF80918A01803208F4F9
:103DC000BECF20918401309185013A832983DC8222
:103DD000CB82909188019D831E828F83CE010196B4
:103DE000ACCF60E084E891E00E94B90D0E94F70C2E
:103DF0006816790608F0B7CFFF2009F4C3CEFE2C71
:103E0000EE2009F4E3CE90918501F80181819813A9
:103E10002DC0909184018081981328C080918601E3
:103E200090918701C81AD90AF8ECCF16D104A8F4EA
:103E300090918A0190FD11C0907F79F080918A0164
:103E4000F8018683903F31F0982F907F905F8F70BC
:103E5000892B8683C8010E94241787E0F801A4E813
:103E6000B1E001900D928A95E1F7ABCEC8010E94B6
:103E7000960D811164CF80918A01816080938A01BF
:103E8000C8010E9424179DCEABE1B0E0EAE4FFE157
:103E90000C94AE2A4E8B5F8B688F798F8A8F9B8FA5
:103EA0009111109284031D8A86E0FE017696DE0150
:103EB0001F9601900D928A95E1F78091A30182FFF0
:103EC0001CC00E94130520918C0130918D01821B32
:103ED000930B8838934120F080918E0182FF7AC045
:103EE0000E9413052091970130919801821B930B3A
:103EF0008838934110F00E944F088B89882329F05D
:103F000061E0CE010F960E94B90D87E0FE013F9659
:103F1000DE01189601900D928A95E1F7CE01089680
:103F20000E94A61D81110CC087E0FE013896DE01BB
:103F3000119601900D928A95E1F78C8581110BC045
:103F400017E08091E6039091AD03891331C06B9621
:103F5000E3E00C94CA2A2091AD0330E0C901019638
:103F6000877099274091E6034817190699F097E062
:103F7000929FD001939FB00D1124A255BC4FFE011A
:103F8000319601900D929A95E1F78093AD030E94CE
:103F90008E08D6CF0E9474101092AD031092E603E3
:103FA00087E0E4E8F1E0DF011D928A95E9F7C8CFE8
:103FB000819FC001112482559C4F0E94A61D882319
:103FC00031F28091E60390E0019687709927809303
:103FD000E603B7CF82E00E940E0982CFA6E0B0E0F0
:103FE000E4EFFFE10C94AD2A8C019093EC028093F6
:103FF000EB02011580E21807C0F4802F0E94A21383
:10400000C8010E9463099801205E310928303105FA
:1040100018F00115110531F40E9491132696E4E081
:104020000C94C92A0E948013F9CF80EF89838A8378
:104030000E9413058160682F9C838B8349815A817C
:104040007C8181E090E00E94441FE8CF0F931F9392
:10405000CF93DF938C01EB0165EF72E08C2F0E9410
:10406000E30C892B71F4DD27C351DD4F8881F80102
:10407000128218828330F1F048F4813059F0823096
:1040800081F0DF91CF911F910F9108958430B9F0A5
:104090008530B9F78091F5029091F602009789F387
:1040A00006C08091F7029091F802009799F30E9460
:1040B000EE1FE7CF8091F9029091FA02F6CF80913E
:1040C000FB029091FC02009791F72091F50230914C
:1040D000F6028091F7029091F80221153105F1F274
:1040E000009729F7C901E3CFA6E0B0E0EAE7F0E2E4
:1040F0000C94AD2A8C019093EC028093EB02011595
:1041000080E21807C0F4C8010E9463099801205E8C
:1041100031092830310518F00115110549F40E94C4
:104120009813802F0E94DF132696E4E00C94C92A8E
:104130000E948713F6CF80EF89838A830E9413053C
:104140008160682F9C838B8349815A817C8181E0C7
:1041500091E00E94441FE8CFCF93DF93EC010E94CF
:104160007420CE010E94EE1FDF91CF9108950F932E
:104170001F93CF93DF938C01862F65EF72E00E942F
:10418000E30C892BB1F4C091F502D091F60220978F
:1041900081F0F8018281833051F4CE010E94AC207D
:1041A000CE010E94AC20CE010E94AC2002C084301F
:1041B000D0F7DF91CF911F910F9108950F931F9327
:1041C000CF93DF938C01EB0165EF72E08C2F0E949F
:1041D000E30C892B09F05CC0FE01FF27D801129681
:1041E0008C911297E351FD4F8130B9F415969C9153
:1041F00092FF02C080830AC090FFFCCF82E08083E0
:104200008091F7029091F8020097B9F48091F5023D
:104210009091F6020097E1F110C08230B9F5159641
:104220008C9182FD28C080FD0BC083E0808380914B
:10423000F9029091FA02009701F10E94742028C0BF
:1042400084E080838091FB029091FC020097A9F7A3
:104250008091F5029091F6020097F9F00E94AC204F
:104260008091F7029091F802009739F78091F5025A
:104270009091F602E2CF85E080838091F5029091E3
:10428000F602009729F00E94AC20F0CF86E08083F0
:10429000DF91CF911F910F9108958091F702909136
:1042A000F802B8CFA6E0B0E0E8E5F1E20C94AD2A60
:1042B0000E9413058C0180919A0190919B018017B7
:1042C000910781F019821A820E941305682F498193
:1042D0005A81792F80E090E00E94441F10939B0147
:1042E00000939A012696E4E00C94C92AE7E5F1E0F0
:1042F00030E041E021912F3FC9F1A22FA295AF708C
:10430000B0E090968C9190E02F7002C095958795C3
:104310002A95E2F780FD2AC0842F382B440F81E0D4
:10432000EC35F80739F780919F01831709F1309335
:104330009F0181E080939E010E94130590939D014F
:1043400080939C0180919C0190919D010E94F804B2
:10435000059790F080919F019091B001981771F0AE
:104360008093B00181E010929E01089580E0D5CF46
:1043700080919E018111E6CF80E0089580E0F3CF27
:104380001F920F920FB60F9211242F933F934F93CA
:104390005F936F937F938F939F93AF93BF93CF93CD
:1043A000DF93EF93FF93D091E900DF708091EC00F1
:1043B000C82FC17080FDC0E81092E9008091F00024
:1043C000877F8093F00078940E949B101092E90000
:1043D0008091F00088608093F000CD2BCF70C09367
:1043E000E900FF91EF91DF91CF91BF91AF919F9144
:1043F0008F917F916F915F914F913F912F910F908E
:104400000FBE0F901F9018951F920F920FB60F922C
:1044100011242F933F934F935F936F937F938F93C9
:104420009F93AF93BF93EF93FF938091E10082FF3F
:1044300015C08091E20082FF11C08091E1008B7F66
:104440008093E100209195032F5F822F62E30E9409
:104450005E2A992309F4C0C0209395038091DA0065
:1044600080FF28C08091D80080FF24C08091DA00AE
:104470008E7F8093DA008091D90080FFE3C080E1D5
:1044800089BD82E189BD09B400FEFDCF81E0809342
:10449000A30380E893E00E94DA02809196038111E1
:1044A00009C00E949B030E943C048091E20084604A
:1044B0008093E2008091E10080FF1BC08091E200C8
:1044C00080FF17C08091E2008E7F8093E200809190
:1044D000E20080618093E2008091D8008062809346
:1044E000D80019BC85E08093A30388E893E00E947C
:1044F000DA028091E10084FF2FC08091E20084FF06
:104500002BC080E189BD82E189BD89B5982F91706A
:1045100080FFFBCF8091D8008F7D8093D800809161
:10452000E1008F7E8093E1008091E2008F7E809396
:10453000E2008091E20081608093E2008091A40318
:10454000882309F489C084E08093A3038CE893E076
:104550000E94DA028091A3038091E10083FF2BC0C7
:104560008091E20083FF27C08091E100877F8093E4
:10457000E10082E08093A3031092A4038091E10004
:104580008E7F8093E1008091E2008E7F8093E20035
:104590008091E20080618093E20042E060E080E090
:1045A0000E940A048091F00088608093F00080E906
:1045B00093E00E94DA02FF91EF91BF91AF919F913A
:1045C0008F917F916F915F914F913F912F910F90BC
:1045D0000FBE0F901F901895109295038091940331
:1045E000882309F43BCF8091A3038430C1F49091D8
:1045F000E9009F702091EC00822F817020FD80E8FF
:10460000892B95E09093E9009091EB0090FF04C016
:104610009091EE0097FD08C08F708093E900109292
:1046200094031CCF1092F1009091E80095FDFACF11
:104630009091E80090FFF0CF9091E8009E779093E2
:10464000E800EACF19BC1092A30384E893E00E942B
:10465000DA02109296032ECF8091E30087FD93E05B
:104660009093A30373CF78941F921FB61F921124C7
:104670008F939F93AF93BF9380918F0390919003FB
:10468000A0919103B09192030196A11DB11D809359
:104690008F0390939003A0939103B0939203BF91E3
:1046A000AF919F918F911F901FBE1F9018951F92E1
:1046B0001FB61F9211248F939F93AF93BF93809146
:1046C0008E03811113C080918F0390919003A0916C
:1046D0009103B09192034196A11DB11D80938F0368
:1046E00090939003A0939103B0939203BF91AF91E5
:1046F0009F918F911F901FBE1F901895CDB7DEB769
:10470000E2970FB6F894DEBF0FBECDBF85B78068C5
:1047100085BF85B7806885BF84B7877F84BF0FB6A4
:10472000F894A89580916000886180936000109251
:1047300060000FBE80E890E00FB6F89480936100AF
:10474000909361000FBE87E99AE090937701809380
:1047500076010E94D1058098889884988C988CE086
:10476000EAE0F1E08E010F5F1F4FD80101900D923A
:104770008A95E1F7D8019E01235F3F4F41E050E069
:104780008D91E82FE295EF70F0E061A18F707A01D2
:1047900002C0EE0CFF1C8A95E2F7C701962F982BFA
:1047A00091A392A18095892382A32A173B0741F701
:1047B0000E949B030E943C048091E20084608093ED
:1047C000E20078948091A3038823B9F0F090E90087
:1047D0002F2D2F70F22E9091EC00892F817090FD7B
:1047E00080E8F82A1092E9008091E80083FD0E9499
:1047F0009B108F2D8F708093E90082E084BD93E041
:1048000095BD9AEF97BD80936E000E94E40D8111D3
:1048100002C00E94D30CA7E5B1E04CE551E021E0D5
:1048200030E08D918F3F91F0E82FE295EF70F0E04E
:10483000F1A08F70B90101C0660F8A95EAF7962F33
:1048400090959F2191A382A1862B82A34A175B0793
:1048500041F71092B00110929F018FE090E00E940A
:104860000B2B6093A4017093A5018093A6019093F4
:10487000A701643010F00E94CC0F90E080E00E940D
:10488000112B863E9E4F21F40E94E40D81115AC0E7
:1048900066EE7EEF90E080E00E94452B60E082E0D3
:1048A00090E00E94272B60E083E090E00E94272B9D
:1048B0001092A00160E074E184E090E00E94452B3A
:1048C00060E086E090E00E94272B6FEF87E090E0A9
:1048D0000E94272B40E050E0BA0188E090E00E945F
:1048E000392B60E084E290E00E94272B60E087E1B2
:1048F00090E00E94272B60E08CE090E00E94272B44
:1049000060E08DE090E00E94272B19821A821B82C2
:104910001C821D821E821F82188648E050E068E1DA
:1049200070E0C8010E94172B40E050E0BA0180E21D
:1049300090E00E94392B80E00E94580C0E94D30C1A
:104940000E94CC0F82E090E00E94032B8093B6017E
:1049500084E090E00E94112B9093A3018093A20128
:104960000E9476218FEF96E7E1E081509040E04091
:10497000E1F700C000000E9476218091B00183FF22
:1049800008C06FEF7FEF90E080E00E94452B0E940F
:10499000560B83E090E00E94032B0E9448090E947E
:1049A0000E0C1092CF021092CD021092CE028FEF19
:1049B00093E0909346028093450210924402109235
:1049C000430210924202109241021092C4011092CE
:1049D000C3011092C2011092C1011092D70210922D
:1049E000D6029093CC028093CB021092CA0210920E
:1049F000C9021092C8021092C70210924A02109285
:104A0000490210924802109247021092D502109269
:104A1000D4021092D3021092D2021092D1021092BC
:104A2000D002E091A401F0E0EE0FFF1FE45AFE4F28
:104A3000808191810E94ED0580E091E090938B034D
:104A400080938A035E01F1E2AF0EB11C8091A30353
:104A500060E1E62E72E1F72E853009F479C10E94FB
:104A600076219091A8018091B00198137BC10E949A
:104A70005221E0908603F0908703E114F10409F1DC
:104A80008091A9019091AA010E94F8046C01C701CC
:104A90000E94F70C8C159D05A0F4809186039091DF
:104AA0008703992754E0880F991F5A95E1F7FC0175
:104AB000EC5FFC4F208122FD04C081509D4F0E947D
:104AC0004A100E945E1581110E94070586E0EEEDF6
:104AD000F2E0D80101900D928A95E1F71092E00280
:104AE0001092E1021092E2021092E3028B819C810B
:104AF000892B09F447C08091B9019091BA010E94B5
:104B0000F8049C019091B501992309F4B0C42531B2
:104B10003105C0F19F3F19F09F5F9093B501FB8075
:104B2000FF2059F00E9412069FEF1F140CF491E031
:104B3000899F802D11248093E002FC80FF2059F092
:104B40000E9412069FEF1F140CF491E0899F802DA4
:104B500011248093E1028091E002882399F0F09083
:104B6000E102FF2079F00E943206882309F451C146
:104B70008093E0028F2D0E943206882309F44BC1F6
:104B80008093E1028D819E81892B09F447C0809139
:104B9000B7019091B8010E94F8049C019091B30173
:104BA000992309F45FC421353105C0F19F3F19F005
:104BB0009F5F9093B301FD80FF2059F00E94F005A4
:104BC0009FEF1F140CF491E0899F802D1124809396
:104BD000E202FE80FF2059F00E94F0059FEF1F14B3
:104BE0000CF491E0899F802D11248093E302809141
:104BF000E202882399F0F090E302FF2079F00E940E
:104C00003206882309F409C18093E2028F2D0E94A5
:104C10003206882309F403C18093E302B8018EEDC4
:104C200092E00E941F0581110CC08091E0029091DA
:104C3000E102892B9091E202892B9091E302892B6A
:104C400011F00E94260E86E0F801AEEDB2E0019070
:104C50000D928A95E1F70E94BE059091AB018917EC
:104C600021F08093AB010E9407058091A30384305B
:104C700009F0ECCE83E08093E9008091E80082FFA8
:104C8000E5CE8091E80090E085FF0AC00E94BA035B
:104C900040E2E42EF12C6801882309F4CCC091E0B5
:104CA0008091E8008B778093E800992309F4CECEB9
:104CB000E090B101F090B2018981E114F10409F4AE
:104CC000C8C08E3F09F050C18A81833020F08550E2
:104CD000833008F049C1EA81EE3008F045C1F0E0C8
:104CE000EC55F44D0C94922A8091A303843031F159
:104CF0000E945E1510928E0328E130E080E40FB62A
:104D0000F894A895209360000FBE8093600083B74D
:104D1000817F846083BF83B7816083BF78948895E7
:104D200083B78E7F83BF0FB6F894A89580916000FB
:104D3000886180936000109260000FBE8091A20392
:104D4000882331F00E9476218091B00181116CC3DB
:104D50008091A303853009F4C7CF0E9474100E948C
:104D6000BE057DCE8091B60181FF25C089EE91E020
:104D70000E94DA021F921F92E4EEF1E0FF93EF939C
:104D80000E94730381EE91E00E94DA028091B001EB
:104D90000E944B091F928F938CED91E09F938F930C
:104DA0000E9473038AED91E00E94DA020FB6F89434
:104DB000DEBF0FBECDBFF090B0018091A8018F156E
:104DC00029F1C82ECF24E12CDD24D3949924939487
:104DD0008C2D8D21A1F0EBA61CA60E9413059EA789
:104DE0008DA79FA691E08F2D8D2109F490E098ABBF
:104DF0004BA55CA56DA57EA58FA50E94441FE394DD
:104E0000DD0C35E0E312E4CFF092A8010E94070523
:104E100030CE81E0ADCE81E0B3CE81E0F5CE81E051
:104E2000FBCE8091F100F60181936F01F1E0EF1A62
:104E3000F10809F434CF8091E80085FDF2CF80912C
:104E4000E8008B778093E8000E94BA03882399F3E7
:104E500026CF8C3009F4C0C078F5843009F4A3C0A3
:104E600058F4823009F46FC008F08EC0813009F424
:104E700066C08FEF898378C0863009F4AAC008F431
:104E80009DC08B30B1F780917F0390918003892B77
:104E900009F46AC040E250E0BE016F5F7F4F82E0DC
:104EA0000E94F90A9FEFE1EEF4E09150E040F040FB
:104EB000E1F700C000006BCD803109F4BDC098F56A
:104EC0008E3009F490C008F48AC080917F039091DD
:104ED0008003892B09F448C0EC80F12C3DE1E316F6
:104EE000F10408F041C0CA80DB80DC24CD24DC243E
:104EF000CE0101964C01E80EF91EC60187539F4F63
:104F0000E814F90489F1F7E3CF16F3E0DF0620F4A3
:104F1000F40164810E94272BFFEF8F1A9F0A2FEF65
:104F2000C21AD20AEACF823109F48BC008F487C0D2
:104F3000833109F4ADC08E3F09F09BCFCCCE1A82ED
:104F400089E08B8311C08A81823009F483C2833067
:104F500091F0813009F08DCF0E9407050E94982AB8
:104F60006B837C838D839E8340E250E0B80182E0B6
:104F70000E94F90A6BCD80917F0390918003892B69
:104F800099F38091B001DDCF8A81823009F071CF31
:104F90006B817C818D819E810E94982A88E290E0BD
:104FA0000E94272BE1CF4C816B818A810E94130DD7
:104FB0009827892798279E838D83D6CF2D813E8180
:104FC0003227232732274C816B818A810E94370C3C
:104FD000CBCF0E94710CC8CF80E18A83C5CF83E01C
:104FE0008A8387E3AECFEC80F12C2DE1E216F10449
:104FF00008F0BACFCA80DB80DC24CD24DC24480151
:10500000E00EF11EC60187539F4F8E149F0409F4D2
:10501000ABCF37E3C31633E0D30658F40E94032B1B
:10502000F4018483FFEFCF1ADF0A2FEF821A920A6E
:10503000E9CFF4011482F6CF0E94270C95CF88E0C7
:10504000CCCFEC80F12C3DE1E316F10408F08CCFDD
:10505000CA80DB80DC24CD24DC244801E00EF11E74
:10506000C60189968E149F0409F47ECFE0E5CE1622
:10507000D10458F40E94032BF4018483FFEFCF1A6C
:10508000DF0A2FEF821A920AEBCFF4011482F6CFD7
:10509000CC80D12C3DE1C316D10408F065CFEA8065
:1050A000FB80FE24EF24FE2480E5E816F10408F0DE
:1050B0005BCF80E590E08E199F098C159D0508F463
:1050C00053CF270199E2490E511C80917F039091A3
:1050D000800316012E0C3F1C892BD1F54701E1E01E
:1050E0008E229924E0FE0DC0C70188960E94032BF2
:1050F0009D8189279827892781159C4711F48FEF77
:105100008D83360120FE1AC021E0621A710885E005
:1051100090E08C0F9D1F860D971D9AAB89ABC20145
:105120008C0D9D1D0E94032BE9A9FAA99081811580
:105130009C4721F48FEFE9A9FAA98083E1E0F0E030
:10514000EC0FFD1FE80DF91D2FEF8614970420F0DA
:10515000CE0101966C011AC09481858181159C470E
:1051600011F42483258382E0880E911C3296EDCFC2
:10517000E0E5EE16F10420F4F60164810E94272B8D
:10518000FFEFCF1ADF0A2FEFE21AF20AC701899662
:10519000E214F30469F7E8CE88E0E6E1F1E0D50136
:1051A00001900D928A95E1F780E2F80111928A95BB
:1051B000E9F786E0898388E0F501DE011596019024
:1051C0000D928A95E1F7D0CE84E3898381E08A83CA
:1051D0001B821C82C9CE8C81682F70E0762F6627D7
:1051E0008B81860F972F911D092E000CAA0BBB0BEC
:1051F00035E0880F991FAA1FBB1F3A95D1F7AC0164
:10520000BD01405E5F4F6F4F7F4F481759076A07D8
:105210007B0708F4A9CE8433F1E09F07A105B1050F
:1052200008F0A2CE453321E052076105710520F058
:1052300044E351E060E070E0481B590BBC0168504A
:105240007E4FC8010E94D62A8FCE4AE150E06FEF10
:1052500070E0CE0107960E94EC2A80917F0389833B
:10526000EA821B821C821D8281E08E837DCE81E0DA
:1052700090E09093B2018093B10182E390E090932B
:10528000AF018093AE010E9413059093AD0180930E
:10529000AC016ACEEF2851F1F090B0018091AC01E1
:1052A0009091AD010E94F8048536910540F1F1FE20
:1052B00026C0F0FE24C00E9413059093AD01809398
:1052C000AC018091AE019091AF0101979093AF0135
:1052D0008093AE01892B51F41092B2011092B1016A
:1052E00081E090E09093800380937F0380917F031F
:1052F00089838091B1018A838091AE0122CE82E3BD
:1053000090E09093AF018093AE01F0CF10928003B4
:1053100010927F0329CE40E250E06FEF70E0C801A9
:105320000E94EC2A21CE8B81813009F469C0882348
:1053300009F45FC0823009F017CE6C818AE0FE016B
:105340003596D50101900D928A95E1F789A19AA130
:1053500081152CE7920741F420917F03309180035F
:10536000232B11F490E080E09AA389A38BA19CA148
:1053700081153CE7930741F420917F03309180032E
:10538000232B11F490E080E09CA38BA38DA19EA120
:105390008115ECE79E0741F420917F033091800353
:1053A000232B11F490E080E09EA38DA38FA198A5FC
:1053B0008115FCE79F0741F420917F033091800322
:1053C000232B11F490E080E098A78FA38FEF683033
:1053D00060F42AE0629FB001112467587F4F4AE0D1
:1053E00050E0C5010E944B2B80E089830E94D105CB
:1053F000BBCD80E2F80111928A95E9F788E03ACDB9
:105400008C819AE0F92EF501EF2C1192EA94E9F7DC
:10541000B5010E94E30C8983F501DE01129601902B
:105420000D92FA94E1F7A0CDE9BCF9BC09B400FEF5
:10543000FDCF8091D8008F7D8093D8008091E000CF
:1054400082608093E0008091E00081FDFCCF0E94AB
:1054500074107ECC88E290E00E94032B1B821C8299
:105460001D8203CF2B30310508F0A2CBD7CB2B30D8
:10547000310508F051CB86CB96E890937A00982FAF
:105480009072906890937B008F7190910901892BA5
:1054900080937C0080917A00806480937A00809170
:1054A0007A0086FDFCCF8091780020917900909160
:1054B0007A009F7790937A00922F0895991B79E054
:1054C00004C0991F961708F0961B881F7A95C9F794
:1054D00080950895AA1BBB1B51E107C0AA1FBB1FE3
:1054E000A617B70710F0A61BB70B881F991F5A9570
:1054F000A9F780959095BC01CD01089597FB072EE3
:1055000016F4009407D077FD09D00E946A2A07FCA0
:1055100005D03EF4909581959F4F089570956195C3
:105520007F4F0895EE0FFF1F0590F491E02D099431
:1055300069279627692778278727782708952F9244
:105540003F924F925F926F927F928F929F92AF9213
:10555000BF92CF92DF92EF92FF920F931F93CF9360
:10556000DF93CDB7DEB7CA1BDB0B0FB6F894DEBFF7
:105570000FBECDBF09942A88398848885F846E841D
:105580007D848C849B84AA84B984C884DF80EE8067
:10559000FD800C811B81AA81B981CE0FD11D0FB670
:1055A000F894DEBF0FBECDBFED010895FB01DC0115
:1055B00002C005900D9241505040D8F70895FB016C
:1055C000DC0104C08D910190801921F441505040BC
:1055D000C8F7881B990B0895DC0101C06D934150F9
:1055E0005040E0F70895DC01CB01FC01F999FECFB2
:1055F00006C0F2BDE1BDF89A319600B40D9241505B
:105600005040B8F70895F999FECF92BD81BDF89A40
:10561000992780B50895A6E1B0E044E050E00C94ED
:10562000F52AA8E1B0E042E050E00C94F52ADC0154
:10563000A40FB51F4150504048F0CB01840F951F77
:105640002E910E94282B41505040D0F70895262FCC
:10565000F999FECF92BD81BDF89A019700B4021668
:1056600039F01FBA20BD0FB6F894FA9AF99A0FBE16
:1056700008950396272F0E94282B0E94272B252F61
:105680000E94282B242F0C94282B0196272F0E9450
:10569000282B0C94272BDC01CB0103C02D910E94F9
:1056A000562B41505040D0F70895262FF999FECF40
:1056B0001FBA92BD81BD20BD0FB6F894FA9AF99A2F
:1056C0000FBE01960895F894FFCF7C11A4115813D2
:1056D000A4115813D711F811581301130E13C1193F
:1056E000361AC91993199719CD199B19D119DD19B2
:1056F000A7192F1AAB19E119AF19E5190D1AB3192A
:10570000E919141AB919EF19F7199F19D519A3191D
:10571000D919BD19F319031A1D1A2D1A8D19C51996
:105720003D1A69196F194719631975197B19811980
:10573000891A891ABD1ABD1A741B8E1BE51AE51A3F
:10574000931BFE1B0D1C0D1CCC28E428EB28B42752
:10575000B427252937294A2986298B29B427B42734
:04576000B4279329AE
:10576400F504420B3B0B340B014035679091939544
:1057740096F1F3F5F6F77DB58BDEC398D7C1818238
:1057840083E200E900EA00B500B600B700CD00836B
:1057940001CC008A019201940121022302240225F2
:1057A40002260227022A02B300B4006F0070009F91
:1057B40001CB019F02A0029492C63697EE02E80341
:1057C4005F0544227B226B014901CE00AC00A60395
:0657D400BF03DF03F80330
:00000001FF
